{
  "transactions": [
    {
      "hash": "0xec6cc01c113e41c81b1c6813787a767a725a09b9975168f946152b3ee5bb366f",
      "transactionType": "CALL",
      "contractName": null,
      "contractAddress": "0x779877a7b0d9e8603169ddbd7836e478b4624789",
      "function": "transfer(address,uint256)",
      "arguments": [
        "0x5C210eF41CD1a72de73bF76eC39637bB0d3d7BEE",
        "3000000000000000000"
      ],
      "transaction": {
        "from": "0x55fb8ed309486abe1522ae48154ffc8f0d320d39",
        "to": "0x779877a7b0d9e8603169ddbd7836e478b4624789",
        "gas": "0x1271d",
        "value": "0x0",
        "input": "0xa9059cbb0000000000000000000000005c210ef41cd1a72de73bf76ec39637bb0d3d7bee00000000000000000000000000000000000000000000000029a2241af62c0000",
        "nonce": "0x9",
        "chainId": "0xaa36a7"
      },
      "additionalContracts": [],
      "isFixedGasLimit": false
    }
  ],
  "receipts": [
    {
      "status": "0x1",
      "cumulativeGasUsed": "0x454c7b",
      "logs": [
        {
          "address": "0x779877a7b0d9e8603169ddbd7836e478b4624789",
          "topics": [
            "0xddf252ad1be2c89b69c2b068fc378daa952ba7f163c4a11628f55a4df523b3ef",
            "0x00000000000000000000000055fb8ed309486abe1522ae48154ffc8f0d320d39",
            "0x0000000000000000000000005c210ef41cd1a72de73bf76ec39637bb0d3d7bee"
          ],
          "data": "0x00000000000000000000000000000000000000000000000029a2241af62c0000",
          "blockHash": "0xe48b9597554f64ea882d74ec4dd57801514aa9053ba4d0439b08f9349be54247",
          "blockNumber": "0x8fc986",
          "blockTimestamp": "0x68f0befc",
          "transactionHash": "0xec6cc01c113e41c81b1c6813787a767a725a09b9975168f946152b3ee5bb366f",
          "transactionIndex": "0x2f",
          "logIndex": "0x54",
          "removed": false
        }
      ],
      "logsBloom": "0x00000004000000000000000000000000000000010000000000000000000000000000000000000000000000000000000000010000000000000000000000000000000000000000000000000008000000000000080000000000000000000000000000000000000000000000000000000000000000000000000000000010000000000000000000000000000000000000800000004080000000000000000000000000000000000000000000000100000000000000000000000000000000000000000000000002000000000000000000000000000000000000000100000000000000000000000000000000000000000000000000000000000000000000000000000000",
      "type": "0x2",
      "transactionHash": "0xec6cc01c113e41c81b1c6813787a767a725a09b9975168f946152b3ee5bb366f",
      "transactionIndex": "0x2f",
      "blockHash": "0xe48b9597554f64ea882d74ec4dd57801514aa9053ba4d0439b08f9349be54247",
      "blockNumber": "0x8fc986",
      "gasUsed": "0xc9ca",
      "effectiveGasPrice": "0xf424a",
      "from": "0x55fb8ed309486abe1522ae48154ffc8f0d320d39",
      "to": "0x779877a7b0d9e8603169ddbd7836e478b4624789",
      "contractAddress": null
    }
  ],
  "libraries": [],
  "pending": [],
  "returns": {},
  "timestamp": 1760607997302,
  "chain": 11155111,
  "commit": null
}